:100000000C9434000C943E000C943E000C943E0082
:100010000C943E000C943E000C943E000C943E0068
:100020000C943E000C943E000C943E000C943E0058
:100030000C943E000C943E000C943E000C943E0048
:100040000C943E000C943E000C943E000C943E0038
:100050000C943E000C943E000C943E000C943E0028
:100060000C943E000C943E0011241FBECFEFD8E04C
:10007000DEBFCDBF0E9450000C945B000C940000CA
:10008000813019F020E030E009C083B1282F30E042
:10009000369527952095309521703070C9010895C7
:1000A0008FEF8AB91BB814B885B9199B02C058984C
:0A00B000FCCF589AFACFF894FFCF66
:00000001FF
